{
  "contractName": "MultiSigWallet",
  "abi": [
    {
      "constant": true,
      "inputs": [
        {
          "name": "",
          "type": "uint256"
        }
      ],
      "name": "owners",
      "outputs": [
        {
          "name": "",
          "type": "address"
        }
      ],
      "payable": false,
      "stateMutability": "view",
      "type": "function"
    },
    {
      "constant": false,
      "inputs": [
        {
          "name": "owner",
          "type": "address"
        }
      ],
      "name": "removeOwner",
      "outputs": [
        {
          "name": "",
          "type": "bool"
        }
      ],
      "payable": false,
      "stateMutability": "nonpayable",
      "type": "function"
    },
    {
      "constant": false,
      "inputs": [
        {
          "name": "transactionId",
          "type": "uint256"
        }
      ],
      "name": "revokeConfirmation",
      "outputs": [
        {
          "name": "",
          "type": "bool"
        }
      ],
      "payable": false,
      "stateMutability": "nonpayable",
      "type": "function"
    },
    {
      "constant": true,
      "inputs": [
        {
          "name": "",
          "type": "address"
        }
      ],
      "name": "isOwner",
      "outputs": [
        {
          "name": "",
          "type": "bool"
        }
      ],
      "payable": false,
      "stateMutability": "view",
      "type": "function"
    },
    {
      "constant": true,
      "inputs": [
        {
          "name": "",
          "type": "uint256"
        },
        {
          "name": "",
          "type": "address"
        }
      ],
      "name": "confirmations",
      "outputs": [
        {
          "name": "",
          "type": "bool"
        }
      ],
      "payable": false,
      "stateMutability": "view",
      "type": "function"
    },
    {
      "constant": true,
      "inputs": [
        {
          "name": "pending",
          "type": "bool"
        },
        {
          "name": "executed",
          "type": "bool"
        }
      ],
      "name": "getTransactionCount",
      "outputs": [
        {
          "name": "count",
          "type": "uint256"
        }
      ],
      "payable": false,
      "stateMutability": "view",
      "type": "function"
    },
    {
      "constant": false,
      "inputs": [
        {
          "name": "owner",
          "type": "address"
        }
      ],
      "name": "addOwner",
      "outputs": [
        {
          "name": "",
          "type": "bool"
        }
      ],
      "payable": false,
      "stateMutability": "nonpayable",
      "type": "function"
    },
    {
      "constant": true,
      "inputs": [
        {
          "name": "transactionId",
          "type": "uint256"
        }
      ],
      "name": "isConfirmed",
      "outputs": [
        {
          "name": "",
          "type": "bool"
        }
      ],
      "payable": false,
      "stateMutability": "view",
      "type": "function"
    },
    {
      "constant": false,
      "inputs": [
        {
          "name": "_to",
          "type": "address"
        },
        {
          "name": "_value",
          "type": "uint256"
        }
      ],
      "name": "transferIdentify",
      "outputs": [
        {
          "name": "",
          "type": "bool"
        }
      ],
      "payable": false,
      "stateMutability": "nonpayable",
      "type": "function"
    },
    {
      "constant": true,
      "inputs": [
        {
          "name": "transactionId",
          "type": "uint256"
        }
      ],
      "name": "getConfirmationCount",
      "outputs": [
        {
          "name": "count",
          "type": "uint256"
        }
      ],
      "payable": false,
      "stateMutability": "view",
      "type": "function"
    },
    {
      "constant": true,
      "inputs": [],
      "name": "getIdentifyAmount",
      "outputs": [
        {
          "name": "balance",
          "type": "uint256"
        }
      ],
      "payable": false,
      "stateMutability": "view",
      "type": "function"
    },
    {
      "constant": true,
      "inputs": [
        {
          "name": "",
          "type": "uint256"
        }
      ],
      "name": "transactions",
      "outputs": [
        {
          "name": "destination",
          "type": "address"
        },
        {
          "name": "value",
          "type": "uint256"
        },
        {
          "name": "data",
          "type": "bytes"
        },
        {
          "name": "executed",
          "type": "bool"
        }
      ],
      "payable": false,
      "stateMutability": "view",
      "type": "function"
    },
    {
      "constant": true,
      "inputs": [],
      "name": "getOwners",
      "outputs": [
        {
          "name": "",
          "type": "address[]"
        }
      ],
      "payable": false,
      "stateMutability": "view",
      "type": "function"
    },
    {
      "constant": true,
      "inputs": [
        {
          "name": "from",
          "type": "uint256"
        },
        {
          "name": "to",
          "type": "uint256"
        },
        {
          "name": "pending",
          "type": "bool"
        },
        {
          "name": "executed",
          "type": "bool"
        }
      ],
      "name": "getTransactionIds",
      "outputs": [
        {
          "name": "_transactionIds",
          "type": "uint256[]"
        }
      ],
      "payable": false,
      "stateMutability": "view",
      "type": "function"
    },
    {
      "constant": true,
      "inputs": [
        {
          "name": "transactionId",
          "type": "uint256"
        }
      ],
      "name": "getConfirmations",
      "outputs": [
        {
          "name": "_confirmations",
          "type": "address[]"
        }
      ],
      "payable": false,
      "stateMutability": "view",
      "type": "function"
    },
    {
      "constant": true,
      "inputs": [],
      "name": "transactionCount",
      "outputs": [
        {
          "name": "",
          "type": "uint256"
        }
      ],
      "payable": false,
      "stateMutability": "view",
      "type": "function"
    },
    {
      "constant": false,
      "inputs": [
        {
          "name": "_required",
          "type": "uint256"
        }
      ],
      "name": "changeRequirement",
      "outputs": [
        {
          "name": "",
          "type": "bool"
        }
      ],
      "payable": false,
      "stateMutability": "nonpayable",
      "type": "function"
    },
    {
      "constant": false,
      "inputs": [
        {
          "name": "transactionId",
          "type": "uint256"
        }
      ],
      "name": "confirmTransaction",
      "outputs": [
        {
          "name": "",
          "type": "bool"
        }
      ],
      "payable": false,
      "stateMutability": "nonpayable",
      "type": "function"
    },
    {
      "constant": false,
      "inputs": [
        {
          "name": "destination",
          "type": "address"
        },
        {
          "name": "value",
          "type": "uint256"
        },
        {
          "name": "data",
          "type": "bytes"
        }
      ],
      "name": "submitTransaction",
      "outputs": [
        {
          "name": "transactionId",
          "type": "uint256"
        }
      ],
      "payable": false,
      "stateMutability": "nonpayable",
      "type": "function"
    },
    {
      "constant": true,
      "inputs": [],
      "name": "MAX_OWNER_COUNT",
      "outputs": [
        {
          "name": "",
          "type": "uint256"
        }
      ],
      "payable": false,
      "stateMutability": "view",
      "type": "function"
    },
    {
      "constant": true,
      "inputs": [],
      "name": "required",
      "outputs": [
        {
          "name": "",
          "type": "uint256"
        }
      ],
      "payable": false,
      "stateMutability": "view",
      "type": "function"
    },
    {
      "constant": false,
      "inputs": [
        {
          "name": "owner",
          "type": "address"
        },
        {
          "name": "newOwner",
          "type": "address"
        }
      ],
      "name": "replaceOwner",
      "outputs": [
        {
          "name": "",
          "type": "bool"
        }
      ],
      "payable": false,
      "stateMutability": "nonpayable",
      "type": "function"
    },
    {
      "constant": false,
      "inputs": [
        {
          "name": "transactionId",
          "type": "uint256"
        }
      ],
      "name": "executeTransaction",
      "outputs": [
        {
          "name": "",
          "type": "bool"
        }
      ],
      "payable": false,
      "stateMutability": "nonpayable",
      "type": "function"
    },
    {
      "constant": true,
      "inputs": [],
      "name": "token",
      "outputs": [
        {
          "name": "",
          "type": "address"
        }
      ],
      "payable": false,
      "stateMutability": "view",
      "type": "function"
    },
    {
      "inputs": [
        {
          "name": "_owners",
          "type": "address[]"
        },
        {
          "name": "_required",
          "type": "uint256"
        },
        {
          "name": "_token",
          "type": "address"
        }
      ],
      "payable": false,
      "stateMutability": "nonpayable",
      "type": "constructor"
    },
    {
      "payable": true,
      "stateMutability": "payable",
      "type": "fallback"
    },
    {
      "anonymous": false,
      "inputs": [
        {
          "indexed": true,
          "name": "sender",
          "type": "address"
        },
        {
          "indexed": true,
          "name": "transactionId",
          "type": "uint256"
        }
      ],
      "name": "Confirmation",
      "type": "event"
    },
    {
      "anonymous": false,
      "inputs": [
        {
          "indexed": true,
          "name": "sender",
          "type": "address"
        },
        {
          "indexed": true,
          "name": "transactionId",
          "type": "uint256"
        }
      ],
      "name": "Revocation",
      "type": "event"
    },
    {
      "anonymous": false,
      "inputs": [
        {
          "indexed": true,
          "name": "transactionId",
          "type": "uint256"
        }
      ],
      "name": "Submission",
      "type": "event"
    },
    {
      "anonymous": false,
      "inputs": [
        {
          "indexed": true,
          "name": "transactionId",
          "type": "uint256"
        }
      ],
      "name": "Execution",
      "type": "event"
    },
    {
      "anonymous": false,
      "inputs": [
        {
          "indexed": true,
          "name": "transactionId",
          "type": "uint256"
        }
      ],
      "name": "ExecutionFailure",
      "type": "event"
    },
    {
      "anonymous": false,
      "inputs": [
        {
          "indexed": true,
          "name": "sender",
          "type": "address"
        },
        {
          "indexed": false,
          "name": "value",
          "type": "uint256"
        }
      ],
      "name": "Deposit",
      "type": "event"
    },
    {
      "anonymous": false,
      "inputs": [
        {
          "indexed": true,
          "name": "owner",
          "type": "address"
        }
      ],
      "name": "OwnerAddition",
      "type": "event"
    },
    {
      "anonymous": false,
      "inputs": [
        {
          "indexed": true,
          "name": "owner",
          "type": "address"
        }
      ],
      "name": "OwnerRemoval",
      "type": "event"
    },
    {
      "anonymous": false,
      "inputs": [
        {
          "indexed": false,
          "name": "required",
          "type": "uint256"
        }
      ],
      "name": "RequirementChange",
      "type": "event"
    }
  ],
  "bytecode": "0x606060405234156200001057600080fd5b604051620027ca380380620027ca83398101604052808051820191906020018051906020019091908051906020019091905050600083518360328211806200005757508181115b80620000635750600081145b806200006f5750600082145b156200007a57600080fd5b600073ffffffffffffffffffffffffffffffffffffffff168473ffffffffffffffffffffffffffffffffffffffff1614151515620000b757600080fd5b600092505b85518310156200023e57600660008785815181101515620000d957fe5b9060200190602002015173ffffffffffffffffffffffffffffffffffffffff1673ffffffffffffffffffffffffffffffffffffffff16815260200190815260200160002060009054906101000a900460ff1680620001655750600086848151811015156200014357fe5b9060200190602002015173ffffffffffffffffffffffffffffffffffffffff16145b80620001b55750600073ffffffffffffffffffffffffffffffffffffffff1686848151811015156200019357fe5b9060200190602002015173ffffffffffffffffffffffffffffffffffffffff16145b15620001c057600080fd5b6001600660008886815181101515620001d557fe5b9060200190602002015173ffffffffffffffffffffffffffffffffffffffff1673ffffffffffffffffffffffffffffffffffffffff16815260200190815260200160002060006101000a81548160ff0219169083151502179055508280600101935050620000bc565b856002908051906020019062000256929190620002ab565b508460008190555083600360006101000a81548173ffffffffffffffffffffffffffffffffffffffff021916908373ffffffffffffffffffffffffffffffffffffffff16021790555050505050505062000380565b82805482825590600052602060002090810192821562000327579160200282015b82811115620003265782518260006101000a81548173ffffffffffffffffffffffffffffffffffffffff021916908373ffffffffffffffffffffffffffffffffffffffff16021790555091602001919060010190620002cc565b5b5090506200033691906200033a565b5090565b6200037d91905b808211156200037957600081816101000a81549073ffffffffffffffffffffffffffffffffffffffff02191690555060010162000341565b5090565b90565b61243a80620003906000396000f30060606040526004361061013e576000357c0100000000000000000000000000000000000000000000000000000000900463ffffffff168063025e7c2714610198578063173825d9146101fb57806320ea8d861461024c5780632f54bf6e146102875780633411c81c146102d857806354741525146103325780637065cb4814610376578063784547a7146103c75780637926902e146104025780638b51d13f1461045c5780639825e416146104935780639ace38c2146104bc578063a0e67e2b146105ba578063a8abe69a14610624578063b5dc40c3146106bb578063b77bf60014610733578063ba51a6df1461075c578063c01a8c8414610797578063c6427474146107d2578063d74f8edd1461086b578063dc8452cd14610894578063e20056e6146108bd578063ee22610b1461092d578063fc0c546a14610968575b6000341115610196573373ffffffffffffffffffffffffffffffffffffffff167fe1fffcc4923d04b559f4d29a8bfc6cda04eb5b0d3c460751c2402c5c5cc9109c346040518082815260200191505060405180910390a25b005b34156101a357600080fd5b6101b960048080359060200190919050506109bd565b604051808273ffffffffffffffffffffffffffffffffffffffff1673ffffffffffffffffffffffffffffffffffffffff16815260200191505060405180910390f35b341561020657600080fd5b610232600480803573ffffffffffffffffffffffffffffffffffffffff169060200190919050506109fc565b604051808215151515815260200191505060405180910390f35b341561025757600080fd5b61026d6004808035906020019091905050610ca0565b604051808215151515815260200191505060405180910390f35b341561029257600080fd5b6102be600480803573ffffffffffffffffffffffffffffffffffffffff16906020019091905050610e4f565b604051808215151515815260200191505060405180910390f35b34156102e357600080fd5b610318600480803590602001909190803573ffffffffffffffffffffffffffffffffffffffff16906020019091905050610e6f565b604051808215151515815260200191505060405180910390f35b341561033d57600080fd5b610360600480803515159060200190919080351515906020019091905050610e9e565b6040518082815260200191505060405180910390f35b341561038157600080fd5b6103ad600480803573ffffffffffffffffffffffffffffffffffffffff16906020019091905050610f32565b604051808215151515815260200191505060405180910390f35b34156103d257600080fd5b6103e86004808035906020019091905050611130565b604051808215151515815260200191505060405180910390f35b341561040d57600080fd5b610442600480803573ffffffffffffffffffffffffffffffffffffffff16906020019091908035906020019091905050611216565b604051808215151515815260200191505060405180910390f35b341561046757600080fd5b61047d600480803590602001909190505061139a565b6040518082815260200191505060405180910390f35b341561049e57600080fd5b6104a6611466565b6040518082815260200191505060405180910390f35b34156104c757600080fd5b6104dd600480803590602001909190505061154d565b604051808573ffffffffffffffffffffffffffffffffffffffff1673ffffffffffffffffffffffffffffffffffffffff16815260200184815260200180602001831515151581526020018281038252848181546001816001161561010002031660029004815260200191508054600181600116156101000203166002900480156105a85780601f1061057d576101008083540402835291602001916105a8565b820191906000526020600020905b81548152906001019060200180831161058b57829003601f168201915b50509550505050505060405180910390f35b34156105c557600080fd5b6105cd6115a9565b6040518080602001828103825283818151815260200191508051906020019060200280838360005b838110156106105780820151818401526020810190506105f5565b505050509050019250505060405180910390f35b341561062f57600080fd5b61066460048080359060200190919080359060200190919080351515906020019091908035151590602001909190505061163d565b6040518080602001828103825283818151815260200191508051906020019060200280838360005b838110156106a757808201518184015260208101905061068c565b505050509050019250505060405180910390f35b34156106c657600080fd5b6106dc600480803590602001909190505061179b565b6040518080602001828103825283818151815260200191508051906020019060200280838360005b8381101561071f578082015181840152602081019050610704565b505050509050019250505060405180910390f35b341561073e57600080fd5b6107466119c5565b6040518082815260200191505060405180910390f35b341561076757600080fd5b61077d60048080359060200190919050506119cb565b604051808215151515815260200191505060405180910390f35b34156107a257600080fd5b6107b86004808035906020019091905050611a85565b604051808215151515815260200191505060405180910390f35b34156107dd57600080fd5b610855600480803573ffffffffffffffffffffffffffffffffffffffff1690602001909190803590602001909190803590602001908201803590602001908080601f01602080910402602001604051908101604052809392919081815260200183838082843782019150505050505091905050611c69565b6040518082815260200191505060405180910390f35b341561087657600080fd5b61087e611c89565b6040518082815260200191505060405180910390f35b341561089f57600080fd5b6108a7611c8e565b6040518082815260200191505060405180910390f35b34156108c857600080fd5b610913600480803573ffffffffffffffffffffffffffffffffffffffff1690602001909190803573ffffffffffffffffffffffffffffffffffffffff16906020019091905050611c94565b604051808215151515815260200191505060405180910390f35b341561093857600080fd5b61094e6004808035906020019091905050611fb0565b604051808215151515815260200191505060405180910390f35b341561097357600080fd5b61097b612173565b604051808273ffffffffffffffffffffffffffffffffffffffff1673ffffffffffffffffffffffffffffffffffffffff16815260200191505060405180910390f35b6002818154811015156109cc57fe5b90600052602060002090016000915054906101000a900473ffffffffffffffffffffffffffffffffffffffff1681565b6000803073ffffffffffffffffffffffffffffffffffffffff163373ffffffffffffffffffffffffffffffffffffffff16141515610a3957600080fd5b82600660008273ffffffffffffffffffffffffffffffffffffffff1673ffffffffffffffffffffffffffffffffffffffff16815260200190815260200160002060009054906101000a900460ff161515610a9257600080fd5b6000600660008673ffffffffffffffffffffffffffffffffffffffff1673ffffffffffffffffffffffffffffffffffffffff16815260200190815260200160002060006101000a81548160ff021916908315150217905550600091505b600160028054905003821015610c1a578373ffffffffffffffffffffffffffffffffffffffff16600283815481101515610b2557fe5b906000526020600020900160009054906101000a900473ffffffffffffffffffffffffffffffffffffffff1673ffffffffffffffffffffffffffffffffffffffff161415610c0d576002600160028054905003815481101515610b8457fe5b906000526020600020900160009054906101000a900473ffffffffffffffffffffffffffffffffffffffff16600283815481101515610bbf57fe5b906000526020600020900160006101000a81548173ffffffffffffffffffffffffffffffffffffffff021916908373ffffffffffffffffffffffffffffffffffffffff160217905550610c1a565b8180600101925050610aef565b6001600281818054905003915081610c3291906122e9565b506002805490506000541115610c5257610c506002805490506119cb565b505b8373ffffffffffffffffffffffffffffffffffffffff167f8001553a916ef2f495d26a907cc54d96ed840d7bda71e73194bf5a9df7a76b9060405160405180910390a2600192505050919050565b600033600660008273ffffffffffffffffffffffffffffffffffffffff1673ffffffffffffffffffffffffffffffffffffffff16815260200190815260200160002060009054906101000a900460ff161515610cfb57600080fd5b82336005600083815260200190815260200160002060008273ffffffffffffffffffffffffffffffffffffffff1673ffffffffffffffffffffffffffffffffffffffff16815260200190815260200160002060009054906101000a900460ff161515610d6657600080fd5b846004600082815260200190815260200160002060030160009054906101000a900460ff1615610d9557600080fd5b60006005600088815260200190815260200160002060003373ffffffffffffffffffffffffffffffffffffffff1673ffffffffffffffffffffffffffffffffffffffff16815260200190815260200160002060006101000a81548160ff021916908315150217905550853373ffffffffffffffffffffffffffffffffffffffff167ff6a317157440607f36269043eb55f1287a5a19ba2216afeab88cd46cbcfb88e960405160405180910390a36001945050505050919050565b60066020528060005260406000206000915054906101000a900460ff1681565b60056020528160005260406000206020528060005260406000206000915091509054906101000a900460ff1681565b600080600090505b600154811015610f2b57838015610ede57506004600082815260200190815260200160002060030160009054906101000a900460ff16155b80610f125750828015610f1157506004600082815260200190815260200160002060030160009054906101000a900460ff165b5b15610f1e576001820191505b8080600101915050610ea6565b5092915050565b60003073ffffffffffffffffffffffffffffffffffffffff163373ffffffffffffffffffffffffffffffffffffffff16141515610f6e57600080fd5b81600660008273ffffffffffffffffffffffffffffffffffffffff1673ffffffffffffffffffffffffffffffffffffffff16815260200190815260200160002060009054906101000a900460ff1615610fc657600080fd5b8260008173ffffffffffffffffffffffffffffffffffffffff161415610feb57600080fd5b600160028054905001600054603282118061100557508181115b806110105750600081145b8061101b5750600082145b1561102557600080fd5b6001600660008873ffffffffffffffffffffffffffffffffffffffff1673ffffffffffffffffffffffffffffffffffffffff16815260200190815260200160002060006101000a81548160ff021916908315150217905550600280548060010182816110919190612315565b9160005260206000209001600088909190916101000a81548173ffffffffffffffffffffffffffffffffffffffff021916908373ffffffffffffffffffffffffffffffffffffffff160217905550508573ffffffffffffffffffffffffffffffffffffffff167ff39e6e1eb0edcf53c221607b54b00cd28f3196fed0a24994dc308b8f611b682d60405160405180910390a26001945050505050919050565b6000806000809150600090505b60028054905081101561120e5760056000858152602001908152602001600020600060028381548110151561116e57fe5b906000526020600020900160009054906101000a900473ffffffffffffffffffffffffffffffffffffffff1673ffffffffffffffffffffffffffffffffffffffff1673ffffffffffffffffffffffffffffffffffffffff16815260200190815260200160002060009054906101000a900460ff16156111ee576001820191505b600054821415611201576001925061120f565b808060010191505061113d565b5b5050919050565b60003073ffffffffffffffffffffffffffffffffffffffff163373ffffffffffffffffffffffffffffffffffffffff1614151561125257600080fd5b600073ffffffffffffffffffffffffffffffffffffffff168373ffffffffffffffffffffffffffffffffffffffff161415151561128e57600080fd5b60008211151561129d57600080fd5b600360009054906101000a900473ffffffffffffffffffffffffffffffffffffffff1673ffffffffffffffffffffffffffffffffffffffff1663a9059cbb84846000604051602001526040518363ffffffff167c0100000000000000000000000000000000000000000000000000000000028152600401808373ffffffffffffffffffffffffffffffffffffffff1673ffffffffffffffffffffffffffffffffffffffff16815260200182815260200192505050602060405180830381600087803b151561136a57600080fd5b6102c65a03f1151561137b57600080fd5b50505060405180519050151561139057600080fd5b6001905092915050565b600080600090505b600280549050811015611460576005600084815260200190815260200160002060006002838154811015156113d357fe5b906000526020600020900160009054906101000a900473ffffffffffffffffffffffffffffffffffffffff1673ffffffffffffffffffffffffffffffffffffffff1673ffffffffffffffffffffffffffffffffffffffff16815260200190815260200160002060009054906101000a900460ff1615611453576001820191505b80806001019150506113a2565b50919050565b6000600360009054906101000a900473ffffffffffffffffffffffffffffffffffffffff1673ffffffffffffffffffffffffffffffffffffffff166370a08231306000604051602001526040518263ffffffff167c0100000000000000000000000000000000000000000000000000000000028152600401808273ffffffffffffffffffffffffffffffffffffffff1673ffffffffffffffffffffffffffffffffffffffff168152602001915050602060405180830381600087803b151561152d57600080fd5b6102c65a03f1151561153e57600080fd5b50505060405180519050905090565b60046020528060005260406000206000915090508060000160009054906101000a900473ffffffffffffffffffffffffffffffffffffffff169080600101549080600201908060030160009054906101000a900460ff16905084565b6115b1612341565b600280548060200260200160405190810160405280929190818152602001828054801561163357602002820191906000526020600020905b8160009054906101000a900473ffffffffffffffffffffffffffffffffffffffff1673ffffffffffffffffffffffffffffffffffffffff16815260200190600101908083116115e9575b5050505050905090565b611645612355565b61164d612355565b6000806001546040518059106116605750595b9080825280602002602001820160405250925060009150600090505b60015481101561171e578580156116b457506004600082815260200190815260200160002060030160009054906101000a900460ff16155b806116e857508480156116e757506004600082815260200190815260200160002060030160009054906101000a900460ff165b5b15611711578083838151811015156116fc57fe5b90602001906020020181815250506001820191505b808060010191505061167c565b87870360405180591061172e5750595b908082528060200260200182016040525093508790505b8681101561179057828181518110151561175b57fe5b906020019060200201518489830381518110151561177557fe5b90602001906020020181815250508080600101915050611745565b505050949350505050565b6117a3612341565b6117ab612341565b6000806002805490506040518059106117c15750595b9080825280602002602001820160405250925060009150600090505b6002805490508110156119205760056000868152602001908152602001600020600060028381548110151561180e57fe5b906000526020600020900160009054906101000a900473ffffffffffffffffffffffffffffffffffffffff1673ffffffffffffffffffffffffffffffffffffffff1673ffffffffffffffffffffffffffffffffffffffff16815260200190815260200160002060009054906101000a900460ff16156119135760028181548110151561189657fe5b906000526020600020900160009054906101000a900473ffffffffffffffffffffffffffffffffffffffff1683838151811015156118d057fe5b9060200190602002019073ffffffffffffffffffffffffffffffffffffffff16908173ffffffffffffffffffffffffffffffffffffffff16815250506001820191505b80806001019150506117dd565b8160405180591061192e5750595b90808252806020026020018201604052509350600090505b818110156119bd57828181518110151561195c57fe5b90602001906020020151848281518110151561197457fe5b9060200190602002019073ffffffffffffffffffffffffffffffffffffffff16908173ffffffffffffffffffffffffffffffffffffffff16815250508080600101915050611946565b505050919050565b60015481565b60003073ffffffffffffffffffffffffffffffffffffffff163373ffffffffffffffffffffffffffffffffffffffff16141515611a0757600080fd5b600280549050826032821180611a1c57508181115b80611a275750600081145b80611a325750600082145b15611a3c57600080fd5b836000819055507fa3f1ee9126a074d9326c682f561767f710e927faa811f7a99829d49dc421797a846040518082815260200191505060405180910390a1600192505050919050565b600033600660008273ffffffffffffffffffffffffffffffffffffffff1673ffffffffffffffffffffffffffffffffffffffff16815260200190815260200160002060009054906101000a900460ff161515611ae057600080fd5b8260006004600083815260200190815260200160002060000160009054906101000a900473ffffffffffffffffffffffffffffffffffffffff1673ffffffffffffffffffffffffffffffffffffffff161415611b3b57600080fd5b83336005600083815260200190815260200160002060008273ffffffffffffffffffffffffffffffffffffffff1673ffffffffffffffffffffffffffffffffffffffff16815260200190815260200160002060009054906101000a900460ff1615611ba557600080fd5b60016005600088815260200190815260200160002060003373ffffffffffffffffffffffffffffffffffffffff1673ffffffffffffffffffffffffffffffffffffffff16815260200190815260200160002060006101000a81548160ff021916908315150217905550853373ffffffffffffffffffffffffffffffffffffffff167f4a504a94899432a9846e1aa406dceb1bcfd538bb839071d49d1e5e23f5be30ef60405160405180910390a3611c5b86611fb0565b506001945050505050919050565b6000611c76848484612199565b9050611c8181611a85565b509392505050565b603281565b60005481565b6000803073ffffffffffffffffffffffffffffffffffffffff163373ffffffffffffffffffffffffffffffffffffffff16141515611cd157600080fd5b83600660008273ffffffffffffffffffffffffffffffffffffffff1673ffffffffffffffffffffffffffffffffffffffff16815260200190815260200160002060009054906101000a900460ff161515611d2a57600080fd5b83600660008273ffffffffffffffffffffffffffffffffffffffff1673ffffffffffffffffffffffffffffffffffffffff16815260200190815260200160002060009054906101000a900460ff1615611d8257600080fd5b600092505b600280549050831015611e6d578573ffffffffffffffffffffffffffffffffffffffff16600284815481101515611dba57fe5b906000526020600020900160009054906101000a900473ffffffffffffffffffffffffffffffffffffffff1673ffffffffffffffffffffffffffffffffffffffff161415611e605784600284815481101515611e1257fe5b906000526020600020900160006101000a81548173ffffffffffffffffffffffffffffffffffffffff021916908373ffffffffffffffffffffffffffffffffffffffff160217905550611e6d565b8280600101935050611d87565b6000600660008873ffffffffffffffffffffffffffffffffffffffff1673ffffffffffffffffffffffffffffffffffffffff16815260200190815260200160002060006101000a81548160ff0219169083151502179055506001600660008773ffffffffffffffffffffffffffffffffffffffff1673ffffffffffffffffffffffffffffffffffffffff16815260200190815260200160002060006101000a81548160ff0219169083151502179055508573ffffffffffffffffffffffffffffffffffffffff167f8001553a916ef2f495d26a907cc54d96ed840d7bda71e73194bf5a9df7a76b9060405160405180910390a28473ffffffffffffffffffffffffffffffffffffffff167ff39e6e1eb0edcf53c221607b54b00cd28f3196fed0a24994dc308b8f611b682d60405160405180910390a26001935050505092915050565b600080826004600082815260200190815260200160002060030160009054906101000a900460ff1615611fe257600080fd5b611feb84611130565b156121685760046000858152602001908152602001600020915060018260030160006101000a81548160ff0219169083151502179055508160000160009054906101000a900473ffffffffffffffffffffffffffffffffffffffff1673ffffffffffffffffffffffffffffffffffffffff1682600101548360020160405180828054600181600116156101000203166002900480156120cb5780601f106120a0576101008083540402835291602001916120cb565b820191906000526020600020905b8154815290600101906020018083116120ae57829003601f168201915b505091505060006040518083038185876187965a03f1925050501561211c57837f33e13ecb54c3076d8e8bb8c2881800a4d972b792045ffae98fdf46df365fed7560405160405180910390a2612167565b837f526441bb6c1aba3c9a4a6ca1d6545da9c2333c8c48343ef398eb858d72b7923660405160405180910390a260008260030160006101000a81548160ff0219169083151502179055505b5b600192505050919050565b600360009054906101000a900473ffffffffffffffffffffffffffffffffffffffff1681565b60008360008173ffffffffffffffffffffffffffffffffffffffff1614156121c057600080fd5b60015491506080604051908101604052808673ffffffffffffffffffffffffffffffffffffffff168152602001858152602001848152602001600015158152506004600084815260200190815260200160002060008201518160000160006101000a81548173ffffffffffffffffffffffffffffffffffffffff021916908373ffffffffffffffffffffffffffffffffffffffff160217905550602082015181600101556040820151816002019080519060200190612280929190612369565b5060608201518160030160006101000a81548160ff02191690831515021790555090505060018060008282540192505081905550817fc0ba8fe4b176c1714197d43b9cc6bcf797a4a7461c5fe8d0ef6e184ae7601e5160405160405180910390a2509392505050565b8154818355818115116123105781836000526020600020918201910161230f91906123e9565b5b505050565b81548183558181151161233c5781836000526020600020918201910161233b91906123e9565b5b505050565b602060405190810160405280600081525090565b602060405190810160405280600081525090565b828054600181600116156101000203166002900490600052602060002090601f016020900481019282601f106123aa57805160ff19168380011785556123d8565b828001600101855582156123d8579182015b828111156123d75782518255916020019190600101906123bc565b5b5090506123e591906123e9565b5090565b61240b91905b808211156124075760008160009055506001016123ef565b5090565b905600a165627a7a723058205bcea318712071148697861acb6ffe58c80b334f41449961afaabedb10ba19550029",
  "source": "pragma solidity 0.4.18;\n\nimport \"../token/Identify.sol\";\n\n/// @title Multisignature wallet - Allows multiple parties to agree on transactions before execution.\n/// @author Stefan George - <stefan.george@consensys.net>\n/// Based on MultiSigWallet.sol from https://github.com/Giveth/multisig\ncontract MultiSigWallet {\n\n    uint constant public MAX_OWNER_COUNT = 50;\n    uint public required;\n    uint public transactionCount;\n    address[] public owners;\n    Identify public token;\n\n    mapping (uint => Transaction) public transactions;\n    mapping (uint => mapping (address => bool)) public confirmations;\n    mapping (address => bool) public isOwner;\n\n    event Confirmation(address indexed sender, uint indexed transactionId);\n    event Revocation(address indexed sender, uint indexed transactionId);\n    event Submission(uint indexed transactionId);\n    event Execution(uint indexed transactionId);\n    event ExecutionFailure(uint indexed transactionId);\n    event Deposit(address indexed sender, uint value);\n    event OwnerAddition(address indexed owner);\n    event OwnerRemoval(address indexed owner);\n    event RequirementChange(uint required);\n\n    struct Transaction {\n        address destination;\n        uint value;\n        bytes data;\n        bool executed;\n    }\n\n    modifier onlyWallet() {\n        if (msg.sender != address(this)) {\n            revert();\n        }\n        _;\n        \n    }\n\n    modifier ownerDoesNotExist(address owner) {\n        if (isOwner[owner]) {\n            revert();\n        }\n        _;\n    }\n\n    modifier ownerExists(address owner) {\n        if (!isOwner[owner]) {\n            revert();\n        }\n        _;\n    }\n\n    modifier transactionExists(uint transactionId) {\n        if (transactions[transactionId].destination == 0) {\n            revert();\n        }\n        _;\n    }\n\n    modifier confirmed(uint transactionId, address owner) {\n        if (!confirmations[transactionId][owner]) {\n            revert();\n        }\n        _;\n    }\n\n    modifier notConfirmed(uint transactionId, address owner) {\n        if (confirmations[transactionId][owner]) {\n            revert();\n        }\n        _;\n    }\n\n    modifier notExecuted(uint transactionId) {\n        if (transactions[transactionId].executed) {\n            revert();\n        }\n        _;\n    }\n\n    modifier notNull(address _address) {\n        if (_address == 0) {\n            revert();\n        }\n        _;\n    }\n\n    modifier validRequirement(uint ownerCount, uint _required) {\n        if (ownerCount > MAX_OWNER_COUNT || _required > ownerCount || _required == 0 || ownerCount == 0) {\n            revert();\n        }\n        _;\n    }\n\n    /// @dev Fallback function allows to deposit ether.\n    function() public\n        payable\n    {\n        if (msg.value > 0) {\n            Deposit(msg.sender, msg.value);\n        }\n    }\n\n    /*\n     * Public functions\n     */\n    /// @dev Contract constructor sets initial owners and required number of confirmations.\n    /// @param _owners List of initial owners.\n    /// @param _required Number of required confirmations.\n    function MultiSigWallet(address[] _owners, uint _required, address _token)\n        public\n        validRequirement(_owners.length, _required)\n    {\n        require(_token != address(0));\n\n        for (uint i = 0; i < _owners.length; i++) {\n            if (isOwner[_owners[i]] || _owners[i] == 0 || _owners[i] == address(0)) {\n                revert();\n            }\n            isOwner[_owners[i]] = true;\n        }\n        owners = _owners;\n        required = _required;\n        token = Identify(_token);\n    }\n\n    /// @dev Allows to add a new owner. Transaction has to be sent by wallet.\n    /// @param owner Address of new owner.\n    function addOwner(address owner)\n        public\n        onlyWallet\n        ownerDoesNotExist(owner)\n        notNull(owner)\n        validRequirement(owners.length + 1, required)\n        returns (bool)\n    {\n        isOwner[owner] = true;\n        owners.push(owner);\n        OwnerAddition(owner);\n        return true;\n    }\n\n    /// @dev Allows to remove an owner. Transaction has to be sent by wallet.\n    /// @param owner Address of owner.\n    function removeOwner(address owner)\n        public\n        onlyWallet\n        ownerExists(owner)\n        returns (bool)\n    {\n        isOwner[owner] = false;\n        for (uint i = 0; i < owners.length - 1; i++) {\n            if (owners[i] == owner) {\n                owners[i] = owners[owners.length - 1];\n                break;\n            }\n        }\n        owners.length -= 1;\n        if (required > owners.length)\n            changeRequirement(owners.length);\n        OwnerRemoval(owner);\n        return true;\n    }\n\n    /// @dev Allows to replace an owner with a new owner. Transaction has to be sent by wallet.\n    /// @param owner Address of owner to be replaced.\n    /// @param owner Address of new owner.\n    function replaceOwner(address owner, address newOwner)\n        public\n        onlyWallet\n        ownerExists(owner)\n        ownerDoesNotExist(newOwner)\n        returns (bool)\n    {\n        for (uint i=0; i<owners.length; i++) {\n            if (owners[i] == owner) {\n                owners[i] = newOwner;\n                break;\n            }\n        }\n        isOwner[owner] = false;\n        isOwner[newOwner] = true;\n        OwnerRemoval(owner);\n        OwnerAddition(newOwner);\n        return true;\n    }\n\n    /// @dev Allows to change the number of required confirmations. Transaction has to be sent by wallet.\n    /// @param _required Number of required confirmations.\n    function changeRequirement(uint _required)\n        public\n        onlyWallet\n        validRequirement(owners.length, _required)\n        returns (bool)\n    {\n        required = _required;\n        RequirementChange(_required);\n        return true;\n    }\n\n    /// @dev Allows an owner to submit and confirm a transaction.\n    /// @param destination Transaction target address.\n    /// @param value Transaction ether value.\n    /// @param data Transaction data payload.\n    /// @return Returns transaction ID.\n    function submitTransaction(address destination, uint value, bytes data)\n        public\n        returns (uint transactionId)\n    {\n        transactionId = addTransaction(destination, value, data);\n        confirmTransaction(transactionId);\n    }\n\n    /// @dev Allows an owner to confirm a transaction.\n    /// @param transactionId Transaction ID.\n    function confirmTransaction(uint transactionId)\n        public\n        ownerExists(msg.sender)\n        transactionExists(transactionId)\n        notConfirmed(transactionId, msg.sender)\n        returns (bool)\n    {\n        confirmations[transactionId][msg.sender] = true;\n        Confirmation(msg.sender, transactionId);\n        executeTransaction(transactionId);\n        return true;\n    }\n\n    /// @dev Allows an owner to revoke a confirmation for a transaction.\n    /// @param transactionId Transaction ID.\n    function revokeConfirmation(uint transactionId)\n        public\n        ownerExists(msg.sender)\n        confirmed(transactionId, msg.sender)\n        notExecuted(transactionId)\n        returns (bool)\n    {\n        confirmations[transactionId][msg.sender] = false;\n        Revocation(msg.sender, transactionId);\n        return true;\n    }\n\n    /// @dev Allows anyone to execute a confirmed transaction.\n    /// @param transactionId Transaction ID.\n    function executeTransaction(uint transactionId)\n        public\n        notExecuted(transactionId)\n        returns (bool)\n    {\n        if (isConfirmed(transactionId)) {\n            Transaction storage _tx = transactions[transactionId];\n            _tx.executed = true;\n            if (_tx.destination.call.value(_tx.value)(_tx.data)) {\n                Execution(transactionId);\n            } else {\n                ExecutionFailure(transactionId);\n                _tx.executed = false;\n            }\n        }\n        return true;\n    }\n\n    /// @dev Returns the confirmation status of a transaction.\n    /// @param transactionId Transaction ID.\n    /// @return Confirmation status.\n    function isConfirmed(uint transactionId)\n        public\n        constant\n        returns (bool)\n    {\n        uint count = 0;\n        for (uint i = 0; i < owners.length; i++) {\n            if (confirmations[transactionId][owners[i]])\n                count += 1;\n            if (count == required)\n                return true;\n        }\n    }\n\n    /*\n     * Internal functions\n     */\n    /// @dev Adds a new transaction to the transaction mapping, if transaction does not exist yet.\n    /// @param destination Transaction target address.\n    /// @param value Transaction ether value.\n    /// @param data Transaction data payload.\n    /// @return Returns transaction ID.\n    function addTransaction(address destination, uint value, bytes data)\n        internal\n        notNull(destination)\n        returns (uint transactionId)\n    {\n        transactionId = transactionCount;\n        transactions[transactionId] = Transaction({\n            destination: destination,\n            value: value,\n            data: data,\n            executed: false\n        });\n        transactionCount += 1;\n        Submission(transactionId);\n    }\n\n    /*\n     * Web3 call functions\n     */\n    /// @dev Returns number of confirmations of a transaction.\n    /// @param transactionId Transaction ID.\n    /// @return Number of confirmations.\n    function getConfirmationCount(uint transactionId)\n        public\n        constant\n        returns (uint count)\n    {\n        for (uint i = 0; i < owners.length; i++) {\n            if (confirmations[transactionId][owners[i]]) {\n                count += 1;\n            }\n        }\n    }\n\n    /// @dev Returns total number of transactions after filers are applied.\n    /// @param pending Include pending transactions.\n    /// @param executed Include executed transactions.\n    /// @return Total number of transactions after filters are applied.\n    function getTransactionCount(bool pending, bool executed)\n        public\n        constant\n        returns (uint count)\n    {\n        for (uint i = 0; i < transactionCount; i++) {\n            if (pending && !transactions[i].executed || executed && transactions[i].executed) {\n                count += 1;\n            }\n        }\n    }\n\n    /// @dev Returns list of owners.\n    /// @return List of owner addresses.\n    function getOwners()\n        public\n        constant\n        returns (address[])\n    {\n        return owners;\n    }\n\n    /// @dev Returns array with owner addresses, which confirmed transaction.\n    /// @param transactionId Transaction ID.\n    /// @return Returns array of owner addresses.\n    function getConfirmations(uint transactionId)\n        public\n        constant\n        returns (address[] _confirmations)\n    {\n        address[] memory confirmationsTemp = new address[](owners.length);\n        uint count = 0;\n        uint i;\n        for (i = 0; i < owners.length; i++) {\n            if (confirmations[transactionId][owners[i]]) {\n                confirmationsTemp[count] = owners[i];\n                count += 1;\n            }\n        }\n        _confirmations = new address[](count);\n        for (i = 0; i < count; i++) {\n            _confirmations[i] = confirmationsTemp[i];\n        }\n    }\n\n    /// @dev Returns list of transaction IDs in defined range.\n    /// @param from Index start position of transaction array.\n    /// @param to Index end position of transaction array.\n    /// @param pending Include pending transactions.\n    /// @param executed Include executed transactions.\n    /// @return Returns array of transaction IDs.\n    function getTransactionIds(uint from, uint to, bool pending, bool executed)\n        public\n        constant\n        returns (uint[] _transactionIds)\n    {\n        uint[] memory transactionIdsTemp = new uint[](transactionCount);\n        uint count = 0;\n        uint i;\n        for (i = 0; i < transactionCount; i++) {\n            if (pending && !transactions[i].executed || executed && transactions[i].executed) {\n                transactionIdsTemp[count] = i;\n                count += 1;\n            }\n        }\n        _transactionIds = new uint[](to - from);\n        for (i = from; i < to; i++) {\n            _transactionIds[i - from] = transactionIdsTemp[i];\n        }\n    }\n\n\n     function getIdentifyAmount() public view returns (uint256 balance) {\n        return token.balanceOf(this);\n    }\n\n    function transferIdentify(address _to, uint256 _value) onlyWallet public returns (bool) {\n        require(_to != address(0));\n        require(_value > 0);\n        require(token.transfer(_to,_value));\n        return true;\n    }\n}",
  "sourcePath": "/Users/kevinleyssens/Documents/Projecten/presale_identify/contracts/vault/MultiSigWallet.sol",
  "compiler": {
    "name": "solc",
    "version": "0.4.18+commit.9cf6e910.Emscripten.clang"
  },
  "schemaVersion": "1.0.1",
  "updatedAt": "2018-02-20T11:43:38.508Z"
}