{
  "contractName": "Presale",
  "abi": [
    {
      "constant": true,
      "inputs": [],
      "name": "tokenRaised",
      "outputs": [
        {
          "name": "",
          "type": "uint256"
        }
      ],
      "payable": false,
      "stateMutability": "view",
      "type": "function"
    },
    {
      "constant": true,
      "inputs": [],
      "name": "rate",
      "outputs": [
        {
          "name": "",
          "type": "uint256"
        }
      ],
      "payable": false,
      "stateMutability": "view",
      "type": "function"
    },
    {
      "constant": true,
      "inputs": [],
      "name": "endTime",
      "outputs": [
        {
          "name": "",
          "type": "uint256"
        }
      ],
      "payable": false,
      "stateMutability": "view",
      "type": "function"
    },
    {
      "constant": true,
      "inputs": [],
      "name": "weiRaised",
      "outputs": [
        {
          "name": "",
          "type": "uint256"
        }
      ],
      "payable": false,
      "stateMutability": "view",
      "type": "function"
    },
    {
      "constant": true,
      "inputs": [],
      "name": "wallet",
      "outputs": [
        {
          "name": "",
          "type": "address"
        }
      ],
      "payable": false,
      "stateMutability": "view",
      "type": "function"
    },
    {
      "constant": true,
      "inputs": [],
      "name": "startTime",
      "outputs": [
        {
          "name": "",
          "type": "uint256"
        }
      ],
      "payable": false,
      "stateMutability": "view",
      "type": "function"
    },
    {
      "constant": true,
      "inputs": [],
      "name": "minimumWEI",
      "outputs": [
        {
          "name": "",
          "type": "uint256"
        }
      ],
      "payable": false,
      "stateMutability": "view",
      "type": "function"
    },
    {
      "constant": true,
      "inputs": [],
      "name": "bonusPercentage",
      "outputs": [
        {
          "name": "",
          "type": "uint256"
        }
      ],
      "payable": false,
      "stateMutability": "view",
      "type": "function"
    },
    {
      "constant": true,
      "inputs": [],
      "name": "capWEI",
      "outputs": [
        {
          "name": "",
          "type": "uint256"
        }
      ],
      "payable": false,
      "stateMutability": "view",
      "type": "function"
    },
    {
      "constant": true,
      "inputs": [],
      "name": "owner",
      "outputs": [
        {
          "name": "",
          "type": "address"
        }
      ],
      "payable": false,
      "stateMutability": "view",
      "type": "function"
    },
    {
      "constant": false,
      "inputs": [
        {
          "name": "_newOwner",
          "type": "address"
        }
      ],
      "name": "transferOwnershipToken",
      "outputs": [
        {
          "name": "",
          "type": "bool"
        }
      ],
      "payable": false,
      "stateMutability": "nonpayable",
      "type": "function"
    },
    {
      "constant": true,
      "inputs": [],
      "name": "capTokens",
      "outputs": [
        {
          "name": "",
          "type": "uint256"
        }
      ],
      "payable": false,
      "stateMutability": "view",
      "type": "function"
    },
    {
      "constant": false,
      "inputs": [
        {
          "name": "beneficiary",
          "type": "address"
        }
      ],
      "name": "buyTokens",
      "outputs": [
        {
          "name": "",
          "type": "bool"
        }
      ],
      "payable": true,
      "stateMutability": "payable",
      "type": "function"
    },
    {
      "constant": true,
      "inputs": [],
      "name": "hasEnded",
      "outputs": [
        {
          "name": "",
          "type": "bool"
        }
      ],
      "payable": false,
      "stateMutability": "view",
      "type": "function"
    },
    {
      "constant": false,
      "inputs": [
        {
          "name": "newOwner",
          "type": "address"
        }
      ],
      "name": "transferOwnership",
      "outputs": [
        {
          "name": "",
          "type": "bool"
        }
      ],
      "payable": false,
      "stateMutability": "nonpayable",
      "type": "function"
    },
    {
      "constant": true,
      "inputs": [],
      "name": "token",
      "outputs": [
        {
          "name": "",
          "type": "address"
        }
      ],
      "payable": false,
      "stateMutability": "view",
      "type": "function"
    },
    {
      "inputs": [
        {
          "name": "_startTime",
          "type": "uint256"
        },
        {
          "name": "_endTime",
          "type": "uint256"
        },
        {
          "name": "_wallet",
          "type": "address"
        },
        {
          "name": "_token",
          "type": "address"
        }
      ],
      "payable": false,
      "stateMutability": "nonpayable",
      "type": "constructor"
    },
    {
      "payable": true,
      "stateMutability": "payable",
      "type": "fallback"
    },
    {
      "anonymous": false,
      "inputs": [
        {
          "indexed": true,
          "name": "purchaser",
          "type": "address"
        },
        {
          "indexed": true,
          "name": "beneficiary",
          "type": "address"
        },
        {
          "indexed": false,
          "name": "value",
          "type": "uint256"
        },
        {
          "indexed": false,
          "name": "amount",
          "type": "uint256"
        }
      ],
      "name": "TokenPurchase",
      "type": "event"
    },
    {
      "anonymous": false,
      "inputs": [
        {
          "indexed": true,
          "name": "previousOwner",
          "type": "address"
        },
        {
          "indexed": true,
          "name": "newOwner",
          "type": "address"
        }
      ],
      "name": "OwnershipTransferred",
      "type": "event"
    }
  ],
  "bytecode": "0x6060604052624016406005556012600a0a6121f7026008556006600a0a640110185f4002600955607d600a556012600a0a601902600b55341561004157600080fd5b604051608080610d1e83398101604052808051906020019091908051906020019091908051906020019091908051906020019091905050336000806101000a81548173ffffffffffffffffffffffffffffffffffffffff021916908373ffffffffffffffffffffffffffffffffffffffff1602179055504284101515156100c757600080fd5b8383101515156100d657600080fd5b600073ffffffffffffffffffffffffffffffffffffffff168273ffffffffffffffffffffffffffffffffffffffff161415151561011257600080fd5b600073ffffffffffffffffffffffffffffffffffffffff168173ffffffffffffffffffffffffffffffffffffffff161415151561014e57600080fd5b83600281905550610178625c490085610209640100000000026109e5179091906401000000009004565b60038190555081600460006101000a81548173ffffffffffffffffffffffffffffffffffffffff021916908373ffffffffffffffffffffffffffffffffffffffff16021790555080600160006101000a81548173ffffffffffffffffffffffffffffffffffffffff021916908373ffffffffffffffffffffffffffffffffffffffff16021790555050505050610227565b600080828401905083811015151561021d57fe5b8091505092915050565b610ae8806102366000396000f3006060604052600436106100e6576000357c0100000000000000000000000000000000000000000000000000000000900463ffffffff16806326a21575146100f25780632c4e722e1461011b5780633197cbb6146101445780634042b66f1461016d578063521eb2731461019657806378e97925146101eb5780637e007c1e14610214578063813d6c9a1461023d57806384a9b91c146102665780638da5cb5b1461028f5780639ae6892b146102e4578063a0b70e8714610335578063ec8ac4d81461035e578063ecb70fb7146103a4578063f2fde38b146103d1578063fc0c546a14610422575b6100ef33610477565b50005b34156100fd57600080fd5b6101056105a3565b6040518082815260200191505060405180910390f35b341561012657600080fd5b61012e6105a9565b6040518082815260200191505060405180910390f35b341561014f57600080fd5b6101576105af565b6040518082815260200191505060405180910390f35b341561017857600080fd5b6101806105b5565b6040518082815260200191505060405180910390f35b34156101a157600080fd5b6101a96105bb565b604051808273ffffffffffffffffffffffffffffffffffffffff1673ffffffffffffffffffffffffffffffffffffffff16815260200191505060405180910390f35b34156101f657600080fd5b6101fe6105e1565b6040518082815260200191505060405180910390f35b341561021f57600080fd5b6102276105e7565b6040518082815260200191505060405180910390f35b341561024857600080fd5b6102506105ed565b6040518082815260200191505060405180910390f35b341561027157600080fd5b6102796105f3565b6040518082815260200191505060405180910390f35b341561029a57600080fd5b6102a26105f9565b604051808273ffffffffffffffffffffffffffffffffffffffff1673ffffffffffffffffffffffffffffffffffffffff16815260200191505060405180910390f35b34156102ef57600080fd5b61031b600480803573ffffffffffffffffffffffffffffffffffffffff1690602001909190505061061e565b604051808215151515815260200191505060405180910390f35b341561034057600080fd5b61034861076f565b6040518082815260200191505060405180910390f35b61038a600480803573ffffffffffffffffffffffffffffffffffffffff16906020019091905050610477565b604051808215151515815260200191505060405180910390f35b34156103af57600080fd5b6103b7610775565b604051808215151515815260200191505060405180910390f35b34156103dc57600080fd5b610408600480803573ffffffffffffffffffffffffffffffffffffffff169060200190919050506107af565b604051808215151515815260200191505060405180910390f35b341561042d57600080fd5b61043561090c565b604051808273ffffffffffffffffffffffffffffffffffffffff1673ffffffffffffffffffffffffffffffffffffffff16815260200191505060405180910390f35b60008060008073ffffffffffffffffffffffffffffffffffffffff168473ffffffffffffffffffffffffffffffffffffffff16141515156104b757600080fd5b6104bf610932565b15156104ca57600080fd5b6104d2610775565b1515156104de57600080fd5b3491506104ea826109a0565b9050610501826006546109e590919063ffffffff16565b60068190555061051c816007546109e590919063ffffffff16565b6007819055508373ffffffffffffffffffffffffffffffffffffffff163373ffffffffffffffffffffffffffffffffffffffff167f623b3804fa71d67900d064613da8f94b9617215ee90799290593e1745087ad188484604051808381526020018281526020019250505060405180910390a3610597610a03565b50600192505050919050565b60075481565b60055481565b60035481565b60065481565b600460009054906101000a900473ffffffffffffffffffffffffffffffffffffffff1681565b60025481565b600b5481565b600a5481565b60085481565b6000809054906101000a900473ffffffffffffffffffffffffffffffffffffffff1681565b60008060009054906101000a900473ffffffffffffffffffffffffffffffffffffffff1673ffffffffffffffffffffffffffffffffffffffff163373ffffffffffffffffffffffffffffffffffffffff1614151561067b57600080fd5b600160009054906101000a900473ffffffffffffffffffffffffffffffffffffffff1673ffffffffffffffffffffffffffffffffffffffff1663f2fde38b836000604051602001526040518263ffffffff167c0100000000000000000000000000000000000000000000000000000000028152600401808273ffffffffffffffffffffffffffffffffffffffff1673ffffffffffffffffffffffffffffffffffffffff168152602001915050602060405180830381600087803b151561074057600080fd5b6102c65a03f1151561075157600080fd5b50505060405180519050151561076657600080fd5b60019050919050565b60095481565b600080600080600854600654101592506009546007541015915060035442119050828061079f5750815b806107a75750805b935050505090565b60008060009054906101000a900473ffffffffffffffffffffffffffffffffffffffff1673ffffffffffffffffffffffffffffffffffffffff163373ffffffffffffffffffffffffffffffffffffffff1614151561080c57600080fd5b600073ffffffffffffffffffffffffffffffffffffffff168273ffffffffffffffffffffffffffffffffffffffff161415151561084857600080fd5b816000806101000a81548173ffffffffffffffffffffffffffffffffffffffff021916908373ffffffffffffffffffffffffffffffffffffffff1602179055508173ffffffffffffffffffffffffffffffffffffffff166000809054906101000a900473ffffffffffffffffffffffffffffffffffffffff1673ffffffffffffffffffffffffffffffffffffffff167f8be0079c531659141344cd1fd0a4f28419497f9722a3daafe3b4186f6b6457e060405160405180910390a360019050919050565b600160009054906101000a900473ffffffffffffffffffffffffffffffffffffffff1681565b6000806000806000600254421015801561094e57506003544211155b935060003414159250600b543410159150600854610977346006546109e590919063ffffffff16565b111590508380156109855750825b801561099757508180156109965750805b5b94505050505090565b60006109de60646109d0600a546109c260055487610a6e90919063ffffffff16565b610a6e90919063ffffffff16565b610aa190919063ffffffff16565b9050919050565b60008082840190508381101515156109f957fe5b8091505092915050565b6000600460009054906101000a900473ffffffffffffffffffffffffffffffffffffffff1673ffffffffffffffffffffffffffffffffffffffff166108fc349081150290604051600060405180830381858888f193505050501515610a6757600080fd5b6001905090565b60008082840290506000841480610a8f5750828482811515610a8c57fe5b04145b1515610a9757fe5b8091505092915050565b6000808284811515610aaf57fe5b04905080915050929150505600a165627a7a72305820b2b1133540ace83fe6ced784d3a42b24f6d38d776e41691b19ab06aa50ad43790029",
  "source": "\npragma solidity ^0.4.18;\n\nimport '../ownership/Ownable.sol';\nimport '../math/SafeMath.sol';\nimport '../token/Identify.sol';\n\n\n/**\n * @title Crowdsale\n * @dev Crowdsale is a base contract for managing a token crowdsale.\n * Crowdsales have a start and end timestamps, where investors can make\n * token purchases and the crowdsale will assign them tokens based\n * on a token per ETH rate. Funds collected are forwarded to a wallet\n * as they arrive. The contract requires a MintableToken that will be\n * minted as contributions arrive, note that the crowdsale contract\n * must be owner of the token in order to be able to mint it.\n */\ncontract Presale is Ownable {\n  using SafeMath for uint256;\n\n  // The token being sold\n  Identify public token;\n\n  // start and end timestamps where investments are allowed (both inclusive)\n  uint256 public startTime;\n  uint256 public endTime;\n\n  // address where funds are collected\n  address public wallet;\n\n  // how many token units a buyer gets per wei\n  uint256 public rate = 4200000;\n\n  // amount of raised money in wei\n  uint256 public weiRaised;  \n  \n  // amount of tokens \n  uint256 public tokenRaised;\n\n  // All parameters\n  uint256 public capWEI = 8695 * (10 ** uint256(18));\n  uint256 public capTokens = 4565000000 * (10 ** uint256(6));\n  uint256 public bonusPercentage = 125; // 25% bonus\n  uint256 public minimumWEI = 25 * (10 ** uint256(18));\n\n  /**\n   * event for token purchase logging\n   * @param purchaser who paid for the tokens\n   * @param beneficiary who got the tokens\n   * @param value weis paid for purchase\n   * @param amount amount of tokens purchased\n   */\n  event TokenPurchase(address indexed purchaser, address indexed beneficiary, uint256 value, uint256 amount);\n\n\n  function Presale(uint256 _startTime, uint256 _endTime, address _wallet, Identify _token) public \n  {\n    require(_startTime >= now);\n    require(_endTime >= _startTime);\n    require(_wallet != address(0));\n    require(_token != address(0));\n\n    startTime = _startTime;\n    endTime = _startTime.add(10 weeks);\n    wallet = _wallet;\n    token = _token;\n  }\n\n  // fallback function can be used to buy tokens\n  function () external payable \n  {\n    buyTokens(msg.sender);\n  }\n\n  // low level token purchase function\n  function buyTokens(address beneficiary) public payable returns (bool) {\n    require(beneficiary != address(0));\n    require(validPurchase());\n    require(!hasEnded());\n\n    uint256 weiAmount = msg.value;\n\n    // calculate token amount to be created\n    uint256 tokens = getTokenAmount(weiAmount);\n    \n    // update state\n    weiRaised = weiRaised.add(weiAmount);\n    tokenRaised = tokenRaised.add(tokens);\n\n    // require(token.transferFrom(token, beneficiary, tokens));\n    TokenPurchase(msg.sender, beneficiary, weiAmount, tokens);\n\n    forwardFunds();\n    return true;\n  }\n\n  // @return true if crowdsale event has ended\n  function hasEnded() public view returns (bool) {\n    bool capReached = weiRaised >= capWEI;\n    bool capTokensReached = tokenRaised >= capTokens;\n    bool ended = now > endTime;\n    // bool combined1 = capReached || ended;\n    return (capReached || capTokensReached) || ended;\n  }\n\n  // Override this method to have a way to add business logic to your crowdsale when buying\n  function getTokenAmount(uint256 weiAmount) internal view returns(uint256) {\n    return weiAmount.mul(rate).mul(bonusPercentage).div(100);\n  }\n\n  // send ether to the fund collection wallet\n  // override to create custom fund forwarding mechanisms\n  function forwardFunds() internal returns (bool) {\n    wallet.transfer(msg.value);\n    return true;\n  }\n\n  // @return true if the transaction can buy tokens\n  function validPurchase() internal view returns (bool) {\n    bool withinPeriod = now >= startTime && now <= endTime;\n    bool nonZeroPurchase = msg.value != 0;\n    bool minimumReached = msg.value >= minimumWEI;\n    bool withinCap = weiRaised.add(msg.value) <= capWEI;\n    // bool combined1 = withinPeriod && withinCap;\n    // bool combined2 = nonZeroPurchase && minimumReached;\n    return (withinPeriod && nonZeroPurchase) && (minimumReached && withinCap);\n  }\n\n  function transferOwnershipToken(address _newOwner) onlyOwner public returns (bool) {\n    require(token.transferOwnership(_newOwner));\n    return true;\n  }\n\n}",
  "sourcePath": "/Users/kevinleyssens/Documents/Projecten/presale_identify/contracts/crowdsale/Presale.sol",
  "compiler": {
    "name": "solc",
    "version": "0.4.18+commit.9cf6e910.Emscripten.clang"
  },
  "schemaVersion": "1.0.1",
  "updatedAt": "2018-02-20T11:43:38.514Z"
}