{
  "contractName": "Whitelist",
  "abi": [
    {
      "constant": false,
      "inputs": [],
      "name": "addSelfToWhitelist",
      "outputs": [],
      "payable": false,
      "stateMutability": "nonpayable",
      "type": "function"
    },
    {
      "constant": false,
      "inputs": [
        {
          "name": "_address",
          "type": "address"
        }
      ],
      "name": "removeFromList",
      "outputs": [],
      "payable": false,
      "stateMutability": "nonpayable",
      "type": "function"
    },
    {
      "constant": false,
      "inputs": [],
      "name": "resumeWhitelist",
      "outputs": [],
      "payable": false,
      "stateMutability": "nonpayable",
      "type": "function"
    },
    {
      "constant": true,
      "inputs": [],
      "name": "paused",
      "outputs": [
        {
          "name": "",
          "type": "bool"
        }
      ],
      "payable": false,
      "stateMutability": "view",
      "type": "function"
    },
    {
      "constant": false,
      "inputs": [
        {
          "name": "addresses",
          "type": "address[]"
        }
      ],
      "name": "addMultipleToWhitelist",
      "outputs": [],
      "payable": false,
      "stateMutability": "nonpayable",
      "type": "function"
    },
    {
      "constant": true,
      "inputs": [],
      "name": "owner",
      "outputs": [
        {
          "name": "",
          "type": "address"
        }
      ],
      "payable": false,
      "stateMutability": "view",
      "type": "function"
    },
    {
      "constant": true,
      "inputs": [],
      "name": "finished",
      "outputs": [
        {
          "name": "",
          "type": "bool"
        }
      ],
      "payable": false,
      "stateMutability": "view",
      "type": "function"
    },
    {
      "constant": true,
      "inputs": [],
      "name": "endTimeRegister",
      "outputs": [
        {
          "name": "",
          "type": "uint256"
        }
      ],
      "payable": false,
      "stateMutability": "view",
      "type": "function"
    },
    {
      "constant": false,
      "inputs": [],
      "name": "pauseWhitelist",
      "outputs": [],
      "payable": false,
      "stateMutability": "nonpayable",
      "type": "function"
    },
    {
      "constant": false,
      "inputs": [],
      "name": "stopRegister",
      "outputs": [],
      "payable": false,
      "stateMutability": "nonpayable",
      "type": "function"
    },
    {
      "constant": false,
      "inputs": [
        {
          "name": "_claimtoken",
          "type": "address"
        }
      ],
      "name": "claimTokens",
      "outputs": [],
      "payable": false,
      "stateMutability": "nonpayable",
      "type": "function"
    },
    {
      "constant": false,
      "inputs": [
        {
          "name": "_newUser",
          "type": "address"
        }
      ],
      "name": "addToWhitelist",
      "outputs": [],
      "payable": false,
      "stateMutability": "nonpayable",
      "type": "function"
    },
    {
      "constant": true,
      "inputs": [],
      "name": "count_whitelist",
      "outputs": [
        {
          "name": "",
          "type": "uint256"
        }
      ],
      "payable": false,
      "stateMutability": "view",
      "type": "function"
    },
    {
      "constant": false,
      "inputs": [
        {
          "name": "newOwner",
          "type": "address"
        }
      ],
      "name": "transferOwnership",
      "outputs": [],
      "payable": false,
      "stateMutability": "nonpayable",
      "type": "function"
    },
    {
      "inputs": [
        {
          "name": "_endTimeRegister",
          "type": "uint256"
        }
      ],
      "payable": false,
      "stateMutability": "nonpayable",
      "type": "constructor"
    },
    {
      "payable": true,
      "stateMutability": "payable",
      "type": "fallback"
    },
    {
      "anonymous": false,
      "inputs": [
        {
          "indexed": true,
          "name": "newUser",
          "type": "address"
        }
      ],
      "name": "NewWhitelister",
      "type": "event"
    },
    {
      "anonymous": false,
      "inputs": [
        {
          "indexed": true,
          "name": "_claimtoken",
          "type": "address"
        },
        {
          "indexed": true,
          "name": "_owner",
          "type": "address"
        },
        {
          "indexed": false,
          "name": "_amount",
          "type": "uint256"
        }
      ],
      "name": "ClaimedTokens",
      "type": "event"
    },
    {
      "anonymous": false,
      "inputs": [
        {
          "indexed": false,
          "name": "endDate",
          "type": "uint256"
        }
      ],
      "name": "ContractInitiated",
      "type": "event"
    },
    {
      "anonymous": false,
      "inputs": [
        {
          "indexed": true,
          "name": "previousOwner",
          "type": "address"
        },
        {
          "indexed": true,
          "name": "newOwner",
          "type": "address"
        }
      ],
      "name": "OwnershipTransferred",
      "type": "event"
    }
  ],
  "bytecode": "0x60606040526000600255341561001457600080fd5b604051602080610c6483398101604052808051906020019091905050336000806101000a81548173ffffffffffffffffffffffffffffffffffffffff021916908373ffffffffffffffffffffffffffffffffffffffff160217905550428111151561007e57600080fd5b806001819055506000600360006101000a81548160ff0219169083151502179055506000600360016101000a81548160ff0219169083151502179055507f30db297b145ab7e2549498eec031fa4eed0f23511f700719a29cc0b0fb5f479d6001546040518082815260200191505060405180910390a150610b60806101046000396000f3006060604052600436106100d0576000357c0100000000000000000000000000000000000000000000000000000000900463ffffffff1680631d1468d41461011b578063257f9abf146101305780632a7b3d4d146101695780635c975abb1461017e5780638401f8d1146101ab5780638da5cb5b14610205578063bef4876b1461025a578063cbd38b7414610287578063d2080ccd146102b0578063d7293cf8146102c5578063df8de3e7146102da578063e43252d714610313578063ecf0fb141461034c578063f2fde38b14610375575b6100d9336103ae565b3373ffffffffffffffffffffffffffffffffffffffff166108fc349081150290604051600060405180830381858888f19350505050151561011957600080fd5b005b341561012657600080fd5b61012e6103e9565b005b341561013b57600080fd5b610167600480803573ffffffffffffffffffffffffffffffffffffffff1690602001909190505061042c565b005b341561017457600080fd5b61017c61048a565b005b341561018957600080fd5b610191610502565b604051808215151515815260200191505060405180910390f35b34156101b657600080fd5b610203600480803590602001908201803590602001908080602002602001604051908101604052809392919081815260200183836020028082843782019150505050505091905050610515565b005b341561021057600080fd5b610218610573565b604051808273ffffffffffffffffffffffffffffffffffffffff1673ffffffffffffffffffffffffffffffffffffffff16815260200191505060405180910390f35b341561026557600080fd5b61026d610598565b604051808215151515815260200191505060405180910390f35b341561029257600080fd5b61029a6105ab565b6040518082815260200191505060405180910390f35b34156102bb57600080fd5b6102c36105b1565b005b34156102d057600080fd5b6102d8610629565b005b34156102e557600080fd5b610311600480803573ffffffffffffffffffffffffffffffffffffffff169060200190919050506106a8565b005b341561031e57600080fd5b61034a600480803573ffffffffffffffffffffffffffffffffffffffff169060200190919050506103ae565b005b341561035757600080fd5b61035f6109d9565b6040518082815260200191505060405180910390f35b341561038057600080fd5b6103ac600480803573ffffffffffffffffffffffffffffffffffffffff169060200190919050506109df565b005b600360009054906101000a900460ff161515156103ca57600080fd5b600360019054906101000a900460ff161515156103e657600080fd5b50565b600360009054906101000a900460ff1615151561040557600080fd5b600360019054906101000a900460ff1615151561042157600080fd5b61042a336103ae565b565b6000809054906101000a900473ffffffffffffffffffffffffffffffffffffffff1673ffffffffffffffffffffffffffffffffffffffff163373ffffffffffffffffffffffffffffffffffffffff1614151561048757600080fd5b50565b6000809054906101000a900473ffffffffffffffffffffffffffffffffffffffff1673ffffffffffffffffffffffffffffffffffffffff163373ffffffffffffffffffffffffffffffffffffffff161415156104e557600080fd5b6000600360006101000a81548160ff021916908315150217905550565b600360009054906101000a900460ff1681565b6000809054906101000a900473ffffffffffffffffffffffffffffffffffffffff1673ffffffffffffffffffffffffffffffffffffffff163373ffffffffffffffffffffffffffffffffffffffff1614151561057057600080fd5b50565b6000809054906101000a900473ffffffffffffffffffffffffffffffffffffffff1681565b600360019054906101000a900460ff1681565b60015481565b6000809054906101000a900473ffffffffffffffffffffffffffffffffffffffff1673ffffffffffffffffffffffffffffffffffffffff163373ffffffffffffffffffffffffffffffffffffffff1614151561060c57600080fd5b6001600360006101000a81548160ff021916908315150217905550565b6000809054906101000a900473ffffffffffffffffffffffffffffffffffffffff1673ffffffffffffffffffffffffffffffffffffffff163373ffffffffffffffffffffffffffffffffffffffff1614151561068457600080fd5b6001600360016101000a81548160ff02191690831515021790555042600181905550565b6000806000809054906101000a900473ffffffffffffffffffffffffffffffffffffffff1673ffffffffffffffffffffffffffffffffffffffff163373ffffffffffffffffffffffffffffffffffffffff1614151561070657600080fd5b60008373ffffffffffffffffffffffffffffffffffffffff1614156107a2576000809054906101000a900473ffffffffffffffffffffffffffffffffffffffff1673ffffffffffffffffffffffffffffffffffffffff166108fc3073ffffffffffffffffffffffffffffffffffffffff16319081150290604051600060405180830381858888f19350505050151561079d57600080fd5b6109d4565b8291508173ffffffffffffffffffffffffffffffffffffffff166370a08231306000604051602001526040518263ffffffff167c0100000000000000000000000000000000000000000000000000000000028152600401808273ffffffffffffffffffffffffffffffffffffffff1673ffffffffffffffffffffffffffffffffffffffff168152602001915050602060405180830381600087803b151561084857600080fd5b6102c65a03f1151561085957600080fd5b5050506040518051905090508173ffffffffffffffffffffffffffffffffffffffff1663a9059cbb6000809054906101000a900473ffffffffffffffffffffffffffffffffffffffff16836000604051602001526040518363ffffffff167c0100000000000000000000000000000000000000000000000000000000028152600401808373ffffffffffffffffffffffffffffffffffffffff1673ffffffffffffffffffffffffffffffffffffffff16815260200182815260200192505050602060405180830381600087803b151561093157600080fd5b6102c65a03f1151561094257600080fd5b50505060405180519050506000809054906101000a900473ffffffffffffffffffffffffffffffffffffffff1673ffffffffffffffffffffffffffffffffffffffff168373ffffffffffffffffffffffffffffffffffffffff167ff931edb47c50b4b4104c187b5814a9aef5f709e17e2ecf9617e860cacade929c836040518082815260200191505060405180910390a35b505050565b60025481565b6000809054906101000a900473ffffffffffffffffffffffffffffffffffffffff1673ffffffffffffffffffffffffffffffffffffffff163373ffffffffffffffffffffffffffffffffffffffff16141515610a3a57600080fd5b600073ffffffffffffffffffffffffffffffffffffffff168173ffffffffffffffffffffffffffffffffffffffff1614151515610a7657600080fd5b806000806101000a81548173ffffffffffffffffffffffffffffffffffffffff021916908373ffffffffffffffffffffffffffffffffffffffff1602179055508073ffffffffffffffffffffffffffffffffffffffff166000809054906101000a900473ffffffffffffffffffffffffffffffffffffffff1673ffffffffffffffffffffffffffffffffffffffff167f8be0079c531659141344cd1fd0a4f28419497f9722a3daafe3b4186f6b6457e060405160405180910390a3505600a165627a7a72305820e183aed5fc144bace850ac4e5cf25ad4d433e2a979078a3068f44a3a60ca6b8a0029",
  "source": "pragma solidity 0.4.18;\n\nimport '../ownership/Ownable.sol';\nimport '../math/SafeMath.sol';\nimport '../token/ERC20.sol';\n\n/**\n * @title Whitelist\n * @dev This contract is a whitelist for the tokensale\n */\n\ncontract Whitelist is Ownable {\n    using SafeMath for uint256;\n\n    uint256 public endTimeRegister;\n    uint256 public count_whitelist = 0;\n    bool public paused;\n    bool public finished;\n\n\n    event NewWhitelister(address indexed newUser);\n    event ClaimedTokens(address indexed _claimtoken, address indexed _owner, uint _amount);\n    event ContractInitiated(uint256 endDate);\n\n    function () payable public {\n        addToWhitelist(msg.sender);\n        // give ETH back\n        msg.sender.transfer(msg.value);\n    }\n\n    function Whitelist(uint256 _endTimeRegister) public {\n        //endTime must be in the future\n        require(_endTimeRegister > now);\n        endTimeRegister = _endTimeRegister;\n        paused = false;\n        finished = false;\n        ContractInitiated(endTimeRegister);\n    }\n\n    function addToWhitelist(address _newUser) notPaused notFinished public {\n\n    }\n\n    function addSelfToWhitelist() notPaused notFinished public {\n        addToWhitelist(msg.sender);\n    }\n\n    function addMultipleToWhitelist(address[] addresses) onlyOwner public {\n\n    }\n\n\n    function removeFromList(address _address) onlyOwner public {\n       \n    }\n\n    // @notice Pauses the whitelist if there is any issue\n    function pauseWhitelist() onlyOwner public {\n        paused = true;\n    }\n\n    // @notice Resumes the TokenSale\n    function resumeWhitelist() onlyOwner public {\n        paused = false;\n    }\n\n    function stopRegister() onlyOwner public {\n        finished = true;\n        endTimeRegister = now;\n    }\n    \n\n    modifier notPaused() {\n        require(!paused);\n        _;\n    }\n\n    modifier notFinished() {\n        require(!finished);\n        _;\n    }\n\n    //////////\n    // Safety Methods\n    //////////\n\n    /// @notice This method can be used by the controller to extract mistakenly\n    ///  sent tokens to this contract.\n    /// @param _claimtoken The address of the token contract that you want to recover\n    ///  set to 0 in case you want to extract ether.\n    function claimTokens(address _claimtoken) public onlyOwner {\n        if (_claimtoken == 0x0) {\n            owner.transfer(this.balance);\n            return;\n        }\n\n        ERC20 claimtoken = ERC20(_claimtoken);\n        uint balance = claimtoken.balanceOf(this);\n        claimtoken.transfer(owner, balance);\n        ClaimedTokens(_claimtoken, owner, balance);\n    }\n\n\n}",
  "sourcePath": "/Users/kevinleyssens/Documents/Projecten/presale_identify/contracts/crowdsale/Whitelist.sol",
  "compiler": {
    "name": "solc",
    "version": "0.4.18+commit.9cf6e910.Emscripten.clang"
  },
  "schemaVersion": "1.0.1",
  "updatedAt": "2018-02-19T10:31:19.477Z"
}