{
  "contractName": "Whitelist",
  "abi": [
    {
      "constant": false,
      "inputs": [],
      "name": "addSelfToWhitelist",
      "outputs": [],
      "payable": false,
      "stateMutability": "nonpayable",
      "type": "function"
    },
    {
      "constant": false,
      "inputs": [
        {
          "name": "_address",
          "type": "address"
        }
      ],
      "name": "removeFromList",
      "outputs": [],
      "payable": false,
      "stateMutability": "nonpayable",
      "type": "function"
    },
    {
      "constant": true,
      "inputs": [],
      "name": "latestBonus",
      "outputs": [
        {
          "name": "",
          "type": "uint256"
        }
      ],
      "payable": false,
      "stateMutability": "view",
      "type": "function"
    },
    {
      "constant": false,
      "inputs": [],
      "name": "resumeWhitelist",
      "outputs": [],
      "payable": false,
      "stateMutability": "nonpayable",
      "type": "function"
    },
    {
      "constant": true,
      "inputs": [],
      "name": "paused",
      "outputs": [
        {
          "name": "",
          "type": "bool"
        }
      ],
      "payable": false,
      "stateMutability": "view",
      "type": "function"
    },
    {
      "constant": false,
      "inputs": [
        {
          "name": "_address",
          "type": "address"
        },
        {
          "name": "_tier",
          "type": "uint256"
        }
      ],
      "name": "changeTier",
      "outputs": [],
      "payable": false,
      "stateMutability": "nonpayable",
      "type": "function"
    },
    {
      "constant": true,
      "inputs": [],
      "name": "phaseInitiated",
      "outputs": [
        {
          "name": "",
          "type": "uint256"
        }
      ],
      "payable": false,
      "stateMutability": "view",
      "type": "function"
    },
    {
      "constant": false,
      "inputs": [
        {
          "name": "addresses",
          "type": "address[]"
        }
      ],
      "name": "addMultipleToWhitelist",
      "outputs": [],
      "payable": false,
      "stateMutability": "nonpayable",
      "type": "function"
    },
    {
      "constant": true,
      "inputs": [],
      "name": "owner",
      "outputs": [
        {
          "name": "",
          "type": "address"
        }
      ],
      "payable": false,
      "stateMutability": "view",
      "type": "function"
    },
    {
      "constant": true,
      "inputs": [
        {
          "name": "_address",
          "type": "address"
        }
      ],
      "name": "getTier",
      "outputs": [
        {
          "name": "",
          "type": "uint256"
        }
      ],
      "payable": false,
      "stateMutability": "view",
      "type": "function"
    },
    {
      "constant": true,
      "inputs": [],
      "name": "finished",
      "outputs": [
        {
          "name": "",
          "type": "bool"
        }
      ],
      "payable": false,
      "stateMutability": "view",
      "type": "function"
    },
    {
      "constant": true,
      "inputs": [],
      "name": "endTimeRegister",
      "outputs": [
        {
          "name": "",
          "type": "uint256"
        }
      ],
      "payable": false,
      "stateMutability": "view",
      "type": "function"
    },
    {
      "constant": false,
      "inputs": [],
      "name": "pauseWhitelist",
      "outputs": [],
      "payable": false,
      "stateMutability": "nonpayable",
      "type": "function"
    },
    {
      "constant": false,
      "inputs": [],
      "name": "stopRegister",
      "outputs": [],
      "payable": false,
      "stateMutability": "nonpayable",
      "type": "function"
    },
    {
      "constant": false,
      "inputs": [
        {
          "name": "_claimtoken",
          "type": "address"
        }
      ],
      "name": "claimTokens",
      "outputs": [],
      "payable": false,
      "stateMutability": "nonpayable",
      "type": "function"
    },
    {
      "constant": false,
      "inputs": [
        {
          "name": "_newUser",
          "type": "address"
        }
      ],
      "name": "addToWhitelist",
      "outputs": [],
      "payable": false,
      "stateMutability": "nonpayable",
      "type": "function"
    },
    {
      "constant": true,
      "inputs": [],
      "name": "count_whitelist",
      "outputs": [
        {
          "name": "",
          "type": "uint256"
        }
      ],
      "payable": false,
      "stateMutability": "view",
      "type": "function"
    },
    {
      "constant": false,
      "inputs": [
        {
          "name": "newOwner",
          "type": "address"
        }
      ],
      "name": "transferOwnership",
      "outputs": [],
      "payable": false,
      "stateMutability": "nonpayable",
      "type": "function"
    },
    {
      "inputs": [
        {
          "name": "_endTimeRegister",
          "type": "uint256"
        }
      ],
      "payable": false,
      "stateMutability": "nonpayable",
      "type": "constructor"
    },
    {
      "payable": true,
      "stateMutability": "payable",
      "type": "fallback"
    },
    {
      "anonymous": false,
      "inputs": [
        {
          "indexed": true,
          "name": "newUser",
          "type": "address"
        },
        {
          "indexed": false,
          "name": "tier",
          "type": "uint256"
        }
      ],
      "name": "NewWhitelister",
      "type": "event"
    },
    {
      "anonymous": false,
      "inputs": [
        {
          "indexed": true,
          "name": "_claimtoken",
          "type": "address"
        },
        {
          "indexed": true,
          "name": "_owner",
          "type": "address"
        },
        {
          "indexed": false,
          "name": "_amount",
          "type": "uint256"
        }
      ],
      "name": "ClaimedTokens",
      "type": "event"
    },
    {
      "anonymous": false,
      "inputs": [
        {
          "indexed": false,
          "name": "endDate",
          "type": "uint256"
        }
      ],
      "name": "ContractInitiated",
      "type": "event"
    },
    {
      "anonymous": false,
      "inputs": [
        {
          "indexed": true,
          "name": "previousOwner",
          "type": "address"
        },
        {
          "indexed": true,
          "name": "newOwner",
          "type": "address"
        }
      ],
      "name": "OwnershipTransferred",
      "type": "event"
    }
  ],
  "bytecode": "0x6060604052600060025560006003556a05f4a8c8375d1554000000614e27556a084595161401484a000000614e2855341561003957600080fd5b6040516020806116d683398101604052808051906020019091905050336000806101000a81548173ffffffffffffffffffffffffffffffffffffffff021916908373ffffffffffffffffffffffffffffffffffffffff16021790555042811115156100a357600080fd5b806001819055506000600460006101000a81548160ff0219169083151502179055506000600460016101000a81548160ff0219169083151502179055506000614e26819055507f30db297b145ab7e2549498eec031fa4eed0f23511f700719a29cc0b0fb5f479d6001546040518082815260200191505060405180910390a1506115a4806101326000396000f3006060604052600436106100fc576000357c0100000000000000000000000000000000000000000000000000000000900463ffffffff1680631d1468d414610147578063257f9abf1461015c57806327cc94ad146101955780632a7b3d4d146101be5780635c975abb146101d35780636c855c3c14610200578063712ba1df146102425780638401f8d11461026b5780638da5cb5b146102c5578063b45aae521461031a578063bef4876b14610367578063cbd38b7414610394578063d2080ccd146103bd578063d7293cf8146103d2578063df8de3e7146103e7578063e43252d714610420578063ecf0fb1414610459578063f2fde38b14610482575b610105336104bb565b3373ffffffffffffffffffffffffffffffffffffffff166108fc349081150290604051600060405180830381858888f19350505050151561014557600080fd5b005b341561015257600080fd5b61015a610719565b005b341561016757600080fd5b610193600480803573ffffffffffffffffffffffffffffffffffffffff1690602001909190505061075c565b005b34156101a057600080fd5b6101a8610a29565b6040518082815260200191505060405180910390f35b34156101c957600080fd5b6101d1610a30565b005b34156101de57600080fd5b6101e6610aa8565b604051808215151515815260200191505060405180910390f35b341561020b57600080fd5b610240600480803573ffffffffffffffffffffffffffffffffffffffff16906020019091908035906020019091905050610abb565b005b341561024d57600080fd5b610255610bdd565b6040518082815260200191505060405180910390f35b341561027657600080fd5b6102c3600480803590602001908201803590602001908080602002602001604051908101604052809392919081815260200183836020028082843782019150505050505091905050610be3565b005b34156102d057600080fd5b6102d8610eba565b604051808273ffffffffffffffffffffffffffffffffffffffff1673ffffffffffffffffffffffffffffffffffffffff16815260200191505060405180910390f35b341561032557600080fd5b610351600480803573ffffffffffffffffffffffffffffffffffffffff16906020019091905050610edf565b6040518082815260200191505060405180910390f35b341561037257600080fd5b61037a610f2b565b604051808215151515815260200191505060405180910390f35b341561039f57600080fd5b6103a7610f3e565b6040518082815260200191505060405180910390f35b34156103c857600080fd5b6103d0610f44565b005b34156103dd57600080fd5b6103e5610fbc565b005b34156103f257600080fd5b61041e600480803573ffffffffffffffffffffffffffffffffffffffff1690602001909190505061103b565b005b341561042b57600080fd5b610457600480803573ffffffffffffffffffffffffffffffffffffffff169060200190919050506104bb565b005b341561046457600080fd5b61046c61136c565b6040518082815260200191505060405180910390f35b341561048d57600080fd5b6104b9600480803573ffffffffffffffffffffffffffffffffffffffff16906020019091905050611372565b005b6000600460009054906101000a900460ff161515156104d957600080fd5b600460019054906101000a900460ff161515156104f557600080fd5b6001544210151561050557600080fd5b614e206002541115151561051857600080fd5b600560008373ffffffffffffffffffffffffffffffffffffffff1673ffffffffffffffffffffffffffffffffffffffff16815260200190815260200160002060030160009054906101000a900460ff1615151561057457600080fd5b60008273ffffffffffffffffffffffffffffffffffffffff161415151561059a57600080fd5b600560008373ffffffffffffffffffffffffffffffffffffffff1673ffffffffffffffffffffffffffffffffffffffff1681526020019081526020016000209050818160000160006101000a81548173ffffffffffffffffffffffffffffffffffffffff021916908373ffffffffffffffffffffffffffffffffffffffff160217905550600081600201819055506106306114c7565b816001018190555060018160030160006101000a81548160ff021916908315150217905550816006600254614e208110151561066857fe5b0160006101000a81548173ffffffffffffffffffffffffffffffffffffffff021916908373ffffffffffffffffffffffffffffffffffffffff1602179055506106bd600160025461154190919063ffffffff16565b6002819055508173ffffffffffffffffffffffffffffffffffffffff167f22edd67d8aa0f4ce5972a8a58fac9d7f936053ed58be8ea3ad70fa0d31a02f9582600101546040518082815260200191505060405180910390a25050565b600460009054906101000a900460ff1615151561073557600080fd5b600460019054906101000a900460ff1615151561075157600080fd5b61075a336104bb565b565b6000806000809054906101000a900473ffffffffffffffffffffffffffffffffffffffff1673ffffffffffffffffffffffffffffffffffffffff163373ffffffffffffffffffffffffffffffffffffffff161415156107ba57600080fd5b600560008473ffffffffffffffffffffffffffffffffffffffff1673ffffffffffffffffffffffffffffffffffffffff16815260200190815260200160002060030160009054906101000a900460ff16151561081557600080fd5b600560008473ffffffffffffffffffffffffffffffffffffffff1673ffffffffffffffffffffffffffffffffffffffff168152602001908152602001600020600080820160006101000a81549073ffffffffffffffffffffffffffffffffffffffff0219169055600182016000905560028201600090556003820160006101000a81549060ff0219169055505060009050600091505b600254821015610a08578273ffffffffffffffffffffffffffffffffffffffff16600683614e20811015156108dc57fe5b0160009054906101000a900473ffffffffffffffffffffffffffffffffffffffff1673ffffffffffffffffffffffffffffffffffffffff161415610970576000600683614e208110151561092c57fe5b0160006101000a81548173ffffffffffffffffffffffffffffffffffffffff021916908373ffffffffffffffffffffffffffffffffffffffff160217905550600190505b80156109fb57600682614e208110151561098657fe5b0160009054906101000a900473ffffffffffffffffffffffffffffffffffffffff16600660018403614e20811015156109bb57fe5b0160006101000a81548173ffffffffffffffffffffffffffffffffffffffff021916908373ffffffffffffffffffffffffffffffffffffffff1602179055505b81806001019250506108ab565b610a1e600160025461155f90919063ffffffff16565b600281905550505050565b614e265481565b6000809054906101000a900473ffffffffffffffffffffffffffffffffffffffff1673ffffffffffffffffffffffffffffffffffffffff163373ffffffffffffffffffffffffffffffffffffffff16141515610a8b57600080fd5b6000600460006101000a81548160ff021916908315150217905550565b600460009054906101000a900460ff1681565b6000809054906101000a900473ffffffffffffffffffffffffffffffffffffffff1673ffffffffffffffffffffffffffffffffffffffff163373ffffffffffffffffffffffffffffffffffffffff16141515610b1657600080fd5b600560008373ffffffffffffffffffffffffffffffffffffffff1673ffffffffffffffffffffffffffffffffffffffff16815260200190815260200160002060030160009054906101000a900460ff161515610b7157600080fd5b60008110158015610b83575060038111155b15610bd45780600560008473ffffffffffffffffffffffffffffffffffffffff1673ffffffffffffffffffffffffffffffffffffffff16815260200190815260200160002060010181905550610bd9565b600080fd5b5050565b60035481565b6000806000809054906101000a900473ffffffffffffffffffffffffffffffffffffffff1673ffffffffffffffffffffffffffffffffffffffff163373ffffffffffffffffffffffffffffffffffffffff16141515610c4157600080fd5b614e2060025411151515610c5457600080fd5b614e20610c6d845160025461154190919063ffffffff16565b11151515610c7a57600080fd5b600091505b8251821015610e9957600560008484815181101515610c9a57fe5b9060200190602002015173ffffffffffffffffffffffffffffffffffffffff1673ffffffffffffffffffffffffffffffffffffffff16815260200190815260200160002060030160009054906101000a900460ff16151515610cfb57600080fd5b60008383815181101515610d0b57fe5b9060200190602002015173ffffffffffffffffffffffffffffffffffffffff1614151515610d3857600080fd5b600560008484815181101515610d4a57fe5b9060200190602002015173ffffffffffffffffffffffffffffffffffffffff1673ffffffffffffffffffffffffffffffffffffffff16815260200190815260200160002090508282815181101515610d9e57fe5b906020019060200201518160000160006101000a81548173ffffffffffffffffffffffffffffffffffffffff021916908373ffffffffffffffffffffffffffffffffffffffff16021790555060008160020181905550610dfc6114c7565b816001018190555060018160030160006101000a81548160ff0219169083151502179055508282815181101515610e2f57fe5b9060200190602002015160068360025401614e2081101515610e4d57fe5b0160006101000a81548173ffffffffffffffffffffffffffffffffffffffff021916908373ffffffffffffffffffffffffffffffffffffffff1602179055508180600101925050610c7f565b610eaf835160025461154190919063ffffffff16565b600281905550505050565b6000809054906101000a900473ffffffffffffffffffffffffffffffffffffffff1681565b6000600560008373ffffffffffffffffffffffffffffffffffffffff1673ffffffffffffffffffffffffffffffffffffffff168152602001908152602001600020600101549050919050565b600460019054906101000a900460ff1681565b60015481565b6000809054906101000a900473ffffffffffffffffffffffffffffffffffffffff1673ffffffffffffffffffffffffffffffffffffffff163373ffffffffffffffffffffffffffffffffffffffff16141515610f9f57600080fd5b6001600460006101000a81548160ff021916908315150217905550565b6000809054906101000a900473ffffffffffffffffffffffffffffffffffffffff1673ffffffffffffffffffffffffffffffffffffffff163373ffffffffffffffffffffffffffffffffffffffff1614151561101757600080fd5b6001600460016101000a81548160ff02191690831515021790555042600181905550565b6000806000809054906101000a900473ffffffffffffffffffffffffffffffffffffffff1673ffffffffffffffffffffffffffffffffffffffff163373ffffffffffffffffffffffffffffffffffffffff1614151561109957600080fd5b60008373ffffffffffffffffffffffffffffffffffffffff161415611135576000809054906101000a900473ffffffffffffffffffffffffffffffffffffffff1673ffffffffffffffffffffffffffffffffffffffff166108fc3073ffffffffffffffffffffffffffffffffffffffff16319081150290604051600060405180830381858888f19350505050151561113057600080fd5b611367565b8291508173ffffffffffffffffffffffffffffffffffffffff166370a08231306000604051602001526040518263ffffffff167c0100000000000000000000000000000000000000000000000000000000028152600401808273ffffffffffffffffffffffffffffffffffffffff1673ffffffffffffffffffffffffffffffffffffffff168152602001915050602060405180830381600087803b15156111db57600080fd5b6102c65a03f115156111ec57600080fd5b5050506040518051905090508173ffffffffffffffffffffffffffffffffffffffff1663a9059cbb6000809054906101000a900473ffffffffffffffffffffffffffffffffffffffff16836000604051602001526040518363ffffffff167c0100000000000000000000000000000000000000000000000000000000028152600401808373ffffffffffffffffffffffffffffffffffffffff1673ffffffffffffffffffffffffffffffffffffffff16815260200182815260200192505050602060405180830381600087803b15156112c457600080fd5b6102c65a03f115156112d557600080fd5b50505060405180519050506000809054906101000a900473ffffffffffffffffffffffffffffffffffffffff1673ffffffffffffffffffffffffffffffffffffffff168373ffffffffffffffffffffffffffffffffffffffff167ff931edb47c50b4b4104c187b5814a9aef5f709e17e2ecf9617e860cacade929c836040518082815260200191505060405180910390a35b505050565b60025481565b6000809054906101000a900473ffffffffffffffffffffffffffffffffffffffff1673ffffffffffffffffffffffffffffffffffffffff163373ffffffffffffffffffffffffffffffffffffffff161415156113cd57600080fd5b600073ffffffffffffffffffffffffffffffffffffffff168173ffffffffffffffffffffffffffffffffffffffff161415151561140957600080fd5b806000806101000a81548173ffffffffffffffffffffffffffffffffffffffff021916908373ffffffffffffffffffffffffffffffffffffffff1602179055508073ffffffffffffffffffffffffffffffffffffffff166000809054906101000a900473ffffffffffffffffffffffffffffffffffffffff1673ffffffffffffffffffffffffffffffffffffffff167f8be0079c531659141344cd1fd0a4f28419497f9722a3daafe3b4186f6b6457e060405160405180910390a350565b600080600254101580156114df57506103e760025411155b156114ed576001905061153e565b6103e860025410158015611505575061138760025411155b15611513576002905061153e565b6113886002541015801561152b5750614e1f60025411155b15611539576003905061153e565b600080fd5b90565b600080828401905083811015151561155557fe5b8091505092915050565b600082821115151561156d57fe5b8183039050929150505600a165627a7a72305820409a1858307dbed59918b6f4ecf5b2c912770e804fa8a9c1724342cb6916b52e0029",
  "source": "pragma solidity 0.4.18;\n\nimport '../ownership/Ownable.sol';\nimport '../math/SafeMath.sol';\nimport '../token/ERC20.sol';\n\n/**\n * @title Whitelist\n * @dev This contract is a whitelist for the tokensale\n */\n\ncontract Whitelist is Ownable {\n    using SafeMath for uint256;\n\n    uint256 public endTimeRegister;\n    uint256 public count_whitelist = 0;\n    uint256 public phaseInitiated = 0;\n    bool public paused;\n    bool public finished;\n    mapping (address => Registrant) private registrants;\n    address[20000] private registrantAddr;\n    uint256 public latestBonus;\n    uint256 bonusAmountPhaseOne = 7200000000000000000000000;\n    uint256 bonusAmountPhaseTwoTillSeven = 10000000000000000000000000;\n\n    struct Registrant {\n        address addr;\n        uint256 tier;\n        uint256 latestBonus;\n        bool exists;\n    }\n\n    event NewWhitelister(address indexed newUser, uint tier);\n    event ClaimedTokens(address indexed _claimtoken, address indexed _owner, uint _amount);\n    event ContractInitiated(uint256 endDate);\n\n    function () payable public {\n        addToWhitelist(msg.sender);\n        // give ETH back\n        msg.sender.transfer(msg.value);\n    }\n\n    function Whitelist(uint256 _endTimeRegister) public {\n        //endTime must be in the future\n        require(_endTimeRegister > now);\n        endTimeRegister = _endTimeRegister;\n        paused = false;\n        finished = false;\n        latestBonus = 0;\n        ContractInitiated(endTimeRegister);\n    }\n\n    function addToWhitelist(address _newUser) notPaused notFinished public {\n        // when started not be able to register to whitelist\n        //check if still is in time to register\n        require(now<endTimeRegister);\n        require(count_whitelist <= 20000);\n        // check if already in whitelist\n        require(!registrants[_newUser].exists);\n        //check valid address\n        require(address(_newUser) != 0);\n        var registrant = registrants[_newUser];\n        registrant.addr = _newUser;\n        registrant.latestBonus = 0;\n        registrant.tier = getTierForNewAddress();\n        registrant.exists = true;\n        registrantAddr[count_whitelist] = _newUser;\n        count_whitelist = count_whitelist.add(1);\n        NewWhitelister(_newUser, registrant.tier);\n\n    }\n\n    function addSelfToWhitelist() notPaused notFinished public {\n        addToWhitelist(msg.sender);\n    }\n\n    function addMultipleToWhitelist(address[] addresses) onlyOwner public {\n        require(count_whitelist <= 20000);\n        require(count_whitelist.add(addresses.length) <= 20000);\n\n        for (uint i=0;i<addresses.length;i++) {\n            require(!registrants[addresses[i]].exists);\n            require(address(addresses[i]) != 0);\n\n            var registrant = registrants[addresses[i]];\n            registrant.addr = addresses[i];\n            registrant.latestBonus = 0;\n            registrant.tier = getTierForNewAddress();\n            registrant.exists = true;\n            registrantAddr[count_whitelist + i] = addresses[i];        \n            }\n\n            count_whitelist = count_whitelist.add(addresses.length);\n    }\n\n    function getTierForNewAddress() internal view returns (uint256) {\n        \n        if(count_whitelist >= 0 && count_whitelist <= 999){\n            return 1;\n        } else if (count_whitelist >= 1000 && count_whitelist <= 4999) {\n            return 2;\n        } else if (count_whitelist >= 5000 && count_whitelist<=19999) {\n            return 3;\n        } else {\n            revert();\n        }\n        return 0;\n    }\n\n    function getTier(address _address) public constant returns (uint256) {\n        return registrants[_address].tier;\n    }\n\n    function changeTier(address _address, uint256 _tier) onlyOwner public {\n        // Must exists\n        require(registrants[_address].exists);\n        // tier must be 0, 1, 2 or 3\n        if(_tier >= 0 && _tier <= 3){\n            registrants[_address].tier = _tier;\n        } else {\n            revert();\n        }\n    }\n\n    function removeFromList(address _address) onlyOwner public {\n        // Must exist\n        require(registrants[_address].exists);\n        delete(registrants[_address]);\n        uint i;\n        bool found=false;\n        for (i=0; i<count_whitelist;i++) {\n            if(registrantAddr[i] == _address) {\n                registrantAddr[i] = 0;\n                found=true;\n            }\n            if(found) {\n                registrantAddr[i-1] = registrantAddr[i];\n            }\n        }\n        count_whitelist = count_whitelist.sub(1);\n    }\n\n    // @notice Pauses the whitelist if there is any issue\n    function pauseWhitelist() onlyOwner public {\n        paused = true;\n    }\n\n    // @notice Resumes the TokenSale\n    function resumeWhitelist() onlyOwner public {\n        paused = false;\n    }\n\n    function stopRegister() onlyOwner public {\n        finished = true;\n        endTimeRegister = now;\n    }\n    \n\n    modifier notPaused() {\n        require(!paused);\n        _;\n    }\n\n    modifier notFinished() {\n        require(!finished);\n        _;\n    }\n\n    //////////\n    // Safety Methods\n    //////////\n\n    /// @notice This method can be used by the controller to extract mistakenly\n    ///  sent tokens to this contract.\n    /// @param _claimtoken The address of the token contract that you want to recover\n    ///  set to 0 in case you want to extract ether.\n    function claimTokens(address _claimtoken) public onlyOwner {\n        if (_claimtoken == 0x0) {\n            owner.transfer(this.balance);\n            return;\n        }\n\n        ERC20 claimtoken = ERC20(_claimtoken);\n        uint balance = claimtoken.balanceOf(this);\n        claimtoken.transfer(owner, balance);\n        ClaimedTokens(_claimtoken, owner, balance);\n    }\n\n\n}",
  "sourcePath": "/Users/kevinleyssens/Documents/Projecten/presale_identify/contracts/crowdsale/Whitelist.sol",
  "compiler": {
    "name": "solc",
    "version": "0.4.18+commit.9cf6e910.Emscripten.clang"
  },
  "schemaVersion": "1.0.1",
  "updatedAt": "2018-02-19T09:40:49.958Z"
}